S00C00004C6162362E73726563D3
S11300000C9434000C9449000C9449000C9449005D
S11300100C9449000C9449000C9449000C94490038
S11300200C9449000C9449000C9449000C94490028
S11300300C9449000C9449000C9449000C94490018
S11300400C9449000C9449000C9449000C94490008
S11300500C9449000C9449000C9449000C944900F8
S11300600C9449000C94490011241FBECFEFD8E032
S1130070DEBFCDBF11E0A0E0B1E0EAE7F2E002C0EC
S113008005900D92A239B107D9F70E947B000C9418
S11300903B010C94000087B18E7F87B988B18E7FB5
S11300A088B980E480937C0087E880937A0010927A
S11300B07B00EEE7F0E0808181608083089580E436
S11300C080937C00EAE7F0E0808180648083809103
S11300D07A0086FDFCCF209178008091790090E031
S11300E0982F8827822B08950E94EC008D30E1F32D
S11300F08A30D1F30895CF93DF93CDB7DEB72A9733
S11301000FB6F894DEBF0FBECDBF8FEF84B915B81C
S11301100E94D9000E944B0080E091E00E94F3000D
S11301208AE091E00E94F30082E291E00E94F300F1
S113013084E391E00E94F3000E9474008133A9F4E7
S11301400E945F004AE0BE016F5F7F4F0E9406017C
S113015089E491E00E94F300CE0101960E94F3002D
S113016087E091E00E94F3001AC08233A1F485E590
S113017091E00E94F3000E947400182F8CE691E035
S11301800E94F300812F0E94E50087E091E00E9425
S1130190F30015B904C080E891E00E94F3002FEF4A
S11301A085EA9EE0215080409040E1F700C00000C5
S11301B0B3CF1092C50087E68093C40088E1809392
S11301C0C10086E08093C20008959091C00095FF1D
S11301D0FCCF8093C60008958091C0008823E4F783
S11301E08091C60008950F931F93CF938C01C0E0B4
S11301F003C00E94E500CF5FF801EC0FF11D808180
S11302008111F7CFCF911F910F910895BB274A30E9
S113021031F4992322F4BDE2909581959F4F0C947B
S11302201201BB27FB015527AA27880F991FAA1F74
S1130230A41710F0A41B83955051B9F7A05DAA33FD
S113024008F0A95DA193009779F7B111B1931192C8
S1130250CB010C942B01DC01FC01672F71917723F6
S1130260E1F7329704C07C916D9370836291AE176D
S10D0270BF07C8F30895F894FFCF08
S113027A0D0A4D454E553A0D0A00312E204C65653E
S113028A7220506F74656E63696F6D6574726F0D59
S113029A0A00322E20456E76696172204153434921
S11302AA490D0A0053656C656363696F6E65206F57
S11302BA7063696F6E3A0D0A0056616C6F72204161
S11302CA44433A2000496E677265736520756E204F
S11302DA63617261637465723A0D0A004361726103
S11302EA6374657220726563696269646F3A200097
S11302FA4F7063696F6E20696E76616C6964610D13
S105030A0A00E3
S9030000FC
